S02100006176722E696F742D6177732D6563632D70726F766973696F6E2E737265635A
S11300000C94DE000C94FB000C94FB000C94FB009D
S11300100C94FB000C94FB000C94FB000C94FB0070
S11300200C94FB000C94FB000C94FB000C94FB0060
S11300300C94FB000C94FB000C94FB000C9496199C
S11300400C94FB000C94FB000C94FB000C94FB0040
S11300500C94FB000C94FB000C94FB000C94FB0030
S11300600C94FB000C94FB000C94FB000C94FB0020
S11300700C94FB000C94481A0C94FB000C94FB00A9
S11300800C94FB000C94FB000C94FB000C94FB0000
S1130090071E021E111E0C1E201E161E1B1E2A26C3
S11300A02A263826172621262126312631264626B9
S11300B013265F265F265F265F2624260009121B6F
S11300C0242D363F48415A536C657E7719100B0234
S11300D03D342F265158434A757C676E323B2029A4
S11300E0161F040D7A7368615E574C452B22393014
S11300F00F061D14636A7178474E555C646D767FF4
S11301004049525B2C253E3708011A137D746F66F3
S113011059504B42353C272E1118030A565F444D63
S1130120727B60691E170C053A3328214F465D54D3
S11301306B627970070E151C232A31384148535AD3
S1130140656C777E09001B122D243F3658514A43B3
S11301507C756E671019020B343D262F737A616823
S1130160575E454C3B3229201F160D046A63787193
S11301704E475C55222B3039060F141D252C373E73
S11301800108131A6D647F7649405B523C352E2773
S113019018110A03747D666F5059424B171E050CE3
S11301A0333A21285F564D447B7269600E071C1553
S11301B02A233831464F545D626B707911241FBE77
S11301C0CFEFCDBFDFE3DEBF18E2A0E0B8E2E4E1A9
S11301D0F5E602C005900D92A636B107D9F728E3DB
S11301E0A6E6B8E201C01D92A533B207E1F70E946A
S11301F05C150C94462E0C9400000C94EB16982F6E
S113020080ED890F8A3070F08FEB890F863010F4FF
S113021089EC05C08FE9890F863018F489EA890FC3
S1130220089580E00895AF92BF92DF92EF92FF921B
S11302300F931F93CF93DF936115710521F18230E2
S1130240910508F15C01EB017B0100E010E0F7018E
S113025080810E94FF00D82ED29480EFD822D882C9
S1130260F70181810E94FF008D2989930F5F1F4F41
S1130270F2E0EF0EF11CC801880F991F8A159B0547
S113028030F3C80102C080E090E0DF91CF911F916C
S11302900F91FF90EF90DF90BF90AF900895CF92B1
S11302A0DF92EF92FF920F931F93CF93DF93CDB71B
S11302B0DEB7C85ED340CDBFDEBF8C0161157105CA
S11302C0E1F1892BD1F19E012F5F3F4F790188EE37
S11302D093E0D901FC011D923197E9F76901FB0113
S11302E09B01200F311F2E173F07D9F0AF019081DA
S11302F092959F709A3010F4905D01C0995CD6017C
S11303009C933196DA019C919F709A3010F4905D21
S113031001C0995CD60111969C93B2E0CB0ED11C1E
S1130320E2CFCB01000F111FA801B7010E94FE2DDF
S1130330C7010E94682DC80102C080E090E0C85146
S1130340DC4FCDBFDEBFDF91CF911F910F91FF90A6
S1130350EF90DF90CF9008952F923F924F925F924B
S11303606F927F928F929F92AF92BF92CF92DF92C1
S1130370EF92FF920F931F93CF93DF93CDB7DEB726
S1130380C15AD109CDBFDEBFFA0120E48E010F5B53
S11303901F4FD801322F1D923A95E9F7AE014F5FF6
S11303A05F4F2A01DA011D922A95E9F73E01B1E86F
S11303B06B0E711C20E2D3011D922A95E9F7009778
S11303C009F46CC06115710509F468C0309709F42B
S11303D065C07C01B6E4EB0EF11CD7014D915C9134
S11303E0208131812417350708F45AC05F014B017D
S11303F06C01FC01EC5BFF4F60817181C4010E94C0
S1130400FE2DF50120803180D7018D919C91808350
S11304109183F601848990E0F381CF55DF4FF8830F
S1130420C15AD040D60155962C91B8012223A1F08F
S11304300E94A00B811135C0F5012081318180E437
S1130440E82EF12CA401B6016F5D7F4FC6010E9416
S11304500D03811126C003C00E94B10CEBCFD5015E
S11304604D915C919301B401C6010E94D80281119F
S113047018C0A201B301CF55DF4FB881C15AD04093
S11304808B2F90E00E94220E81110BC082019101FA
S1130490A501B401C6010E946B0303C082E001C040
S11304A083E090E0CF55DF4FCDBFDEBFDF91CF912A
S11304B01F910F91FF90EF90DF90CF90BF90AF907E
S11304C09F908F907F906F905F904F903F902F9070
S11304D00895FC01808181111AC084818730B9F4A8
S11304E085A996A98417950790F4DB01A80FB91F75
S11304F02C9130E0EC5BFF4F40815181FA01E80F11
S1130500F91F8081A901481B5109CA01089580E09F
S113051090E008956F927F928F929F92AF92BF92D4
S1130520CF92DF92EF92FF920F931F93CF93DF93BB
S1130530009751F16115710539F12115310521F14A
S11305400115110509F1380189015A01EB01FC017A
S1130550E684F784808891886701C80CD91CA601B9
S11305600E946902C80ED91EAC14BD0480F0CE0DE1
S1130570DF1DF801C083D183880D991DF3018083A9
S1130580918380E090E005C082E090E002C08AE0C0
S113059090E0DF91CF911F910F91FF90EF90DF904A
S11305A0CF90BF90AF909F908F907F906F90089561
S11305B0EF92FF920F931F93CF93DF9300D000D05D
S11305C0CDB7DEB71B821C8219821A820097C9F04C
S11305D061157105B1F02115310599F079018E018C
S11305E00F5F1F4F9E012D5F3F4F0E948A020097AD
S11305F051F469817A81A7018B819C810E945D0EEF
S113060002C082E090E02496CDBFDEBFDF91CF919F
S11306101F910F91FF90EF900895AF92BF92CF92E8
S1130620DF92EF92FF920F931F93CF93DF93FC011E
S1130630892BF1F161157105D9F141155105C1F10C
S1130640DB0112968D919C911397009771F101151E
S1130650110571F1A081A1110BC0A481A73041F44F
S1130660DB01CD91DC91A5A9B6A9CA17DB0719F066
S11306708E159F0501F56901EA01DB01CF01AD90FB
S1130680BC90A501BE010E94690297012A0D3B1D81
S1130690280F391FC216D30688F08A0D9B1DA701A7
S11306A0B8018C0F9D1F0E94FE2D80E090E008C0D1
S11306B082E090E005C087E090E002C089E090E02D
S11306C0DF91CF911F910F91FF90EF90DF90CF902A
S11306D0BF90AF9008956F927F928F929F92AF9246
S11306E0BF92CF92DF92EF92FF920F931F93CF931B
S11306F0DF93CDB7DEB72897CDBFDEBF009709F4EF
S113070086C06115710509F482C04115510509F4CB
S11307107EC00115110509F47AC039017A014B0133
S11307205C01FC01C5A0D6A0A6010E9469028C0D43
S11307309D1DF5014081F70120813181442359F049
S1130740B5016B5D7F4F80E4E82EF12CA401C50157
S11307500E940D035EC08217930708F054C059012C
S1130760A81AB90A681A790A6F827886B401680FE0
S1130770791FAE01495F5F4FC8010E941B070097B4
S113078089F08330910509F044C08F8198858A19D6
S11307909B09F70120813181820F931F808391830C
S11307A083E036C04F8158854A195B09F70180817F
S11307B09181840F951F8083918301978D839E83FC
S11307C09E012F5F3F4FBE016B5F7F4FC4010196B7
S11307D00E94E5050097E9F48D819E810196498187
S11307E05A816B817C81480F591F611D711DF7016E
S11307F080819181A0E0B0E0481759076A077B0720
S113080021F480E005C089E003C08AE001C082E0F1
S113081090E02896CDBFDEBFDF91CF911F910F915D
S1130820FF90EF90DF90CF90BF90AF909F908F900C
S11308307F906F900895AF92BF92CF92DF92EF9224
S1130840FF920F931F93CF93DF93FB01009761F106
S1130850309751F14115510539F10115110521F177
S1130860628173816115710511F1E616F70611F5C0
S11308706901EA01A080B180A501BE010E9469025C
S113088097012A0D3B1D280F391FC216D306A8F065
S11308908A0D9B1DBE01680F791FA701C8010E9424
S11308A0FE2D80E090E00BC082E090E008C088E07C
S11308B090E005C087E090E002C089E090E0DF911D
S11308C0CF911F910F91FF90EF90DF90CF90BF9049
S11308D0AF900895EF92FF920F931F93009791F0BA
S11308E06115710579F02115310561F089019A01CD
S11308F0AB01BC016F5D7F4FE0E4EE2EF12C0E9452
S11309001B0402C082E090E01F910F91FF90EF90D2
S11309100895EF92FF920F931F93009791F0611542
S1130920710579F02115310561F089019A01AB0156
S1130930BC01635C7F4FE4E1EE2EF12C0E941B04AA
S113094002C082E090E01F910F91FF90EF90089514
S1130950EF92FF920F931F93F801009711F1611525
S11309607105F9F021153105E1F03097D1F0DC0182
S1130970D796ED90FC90D897A081B181AE15BF05B4
S113098028F4E082F18283E090E00DC089019A01AD
S1130990AB01E082F182BC016B5C7F4F0E941B04BF
S11309A002C082E090E01F910F91FF90EF900895B4
S11309B08F929F92AF92BF92CF93DF93D9011097FA
S11309C009F45DC06038710581059105C8F028E11E
S11309D030E0E3E0F0E04B015C01022E04C0B69489
S11309E0A794979487940A94D2F7285031098928B8
S11309F08A288B2811F43197EECFEF01229604C098
S1130A00E0E0F0E0C1E0D0E04115510559F02D914E
S1130A103C9111972C173D0728F4CD93DC9383E088
S1130A2090E02FC0CD93DC934115510529F19F012E
S1130A30A3E0220F331FAA95E1F7DE011197AE1B45
S1130A40BF0BA40FB51FF7FD0FC04B015C01022EB5
S1130A5004C0B694A794979487940A94D2F78D927D
S1130A60319728503109EFCFC230D10528F08C2FAF
S1130A7081508068FA01808380E090E002C082E0C7
S1130A8090E0DF91CF91BF90AF909F908F900895A9
S1130A902F923F924F925F926F927F928F929F928A
S1130AA0AF92BF92CF92DF92EF92FF920F931F9378
S1130AB0CF93DF93DC011B01FA01892B09F46DC08C
S1130AC06115710509F469C0EB012881398121158B
S1130AD0310509F465C08C9187FF4EC08F77482F8C
S1130AE050E08A010F5F1F4F2017310708F458C0E8
S1130AF08150843008F054C0309721F4F101008310
S1130B00118348C01082118212821382CD01019692
S1130B1060E070E09A01C3E0220F331FCA95E1F749
S1130B2028503109EC01C990CE018C2C912CA12CB8
S1130B30B12C7901E60EF71E2401350104C0440CE2
S1130B40551C661C771CEA94D2F7730162018080FD
S1130B509180A280B380C80CD91CEA1CFB1CC08203
S1130B60D182E282F382685071097E01EA1AFB0A9B
S1130B704E155F05B8F6C2CF309739F090E0A0E08B
S1130B80B0E080839183A283B38381E090E0E101AC
S1130B908883998380E090E005C082E090E002C001
S1130BA084E090E0DF91CF911F910F91FF90EF903F
S1130BB0DF90CF90BF90AF909F908F907F906F9079
S1130BC05F904F903F902F9008958F929F92AF9295
S1130BD0BF92CF92DF92EF92FF920F931F93CF9326
S1130BE0DF93CDB7DEB72B97CDBFDEBF8C016B0192
S1130BF05A0179011A861B861E821F82188619865D
S1130C00AE014A5F5F4F0E944805009709F047C054
S1130C108E819F81A885B985B7FE0DC044275527CD
S1130C204A195B09052E000C660B770B8417950790
S1130C30A607B70790F1A501BB0C660B770B4A0119
S1130C405B01880E991EAA1EBB1EC501B401E114E6
S1130C50F10429F0F70180829182A282B38225E017
S1130C6030E02A873B879E01265F3F4FAE014F5FEE
S1130C705F4F0E94D804009791F4F601408151819E
S1130C808A859B854817590761F4BE016F5F7F4FC2
S1130C90C8010E94FE2D20E005C021E003C0282FDA
S1130CA002C02AE090E0822F2B96CDBFDEBFDF91F9
S1130CB0CF911F910F91FF90EF90DF90CF90BF9055
S1130CC0AF909F908F9008954F925F926F927F9212
S1130CD08F929F92AF92BF92CF92DF92EF92FF9248
S1130CE00F931F93CF93DF93CDB7DEB72797CDBF75
S1130CF0DEBF590125E030E02E833F83009709F4DD
S1130D0082C00115110509F47EC06115710509F44D
S1130D107AC0442321F0FC01208127FD19C0FC0185
S1130D20AB0141505109E12CF12CE416F506B1F068
S1130D303191311107C0208127FD10C02FEFE21A35
S1130D40F20AF3CF3F3F51F4208127FDF7CF06C0CD
S1130D50CC24C394D12CE12CF12C02C0C12CD12C75
S1130D6038018B012C01B601600F711F6E197F09C8
S1130D7080E090E09E012A5F3F4FAE014F5F5F4FDE
S1130D800E94D804009709F042C04E815F814A0155
S1130D908FEF881A980AC801880D991D8C0D9D1D26
S1130DA08E199F09A114B10451F0F30120813181FE
S1130DB02817390720F48083918383E027C0F30147
S1130DC080839183A114B10401F122E0F501219300
S1130DD0CF01BE016F5F7F4F0E94FE2DC114D1046D
S1130DE021F0F501E80DF91D1082C601880D991D49
S1130DF0A8014E195F09B2016E0D7F1D8A0D9B1D5E
S1130E000E94FE2D02C082E001C080E090E027969F
S1130E10CDBFDEBFDF91CF911F910F91FF90EF9077
S1130E20DF90CF90BF90AF909F908F907F906F9006
S1130E305F904F9008958F929F92AF92BF92CF92FE
S1130E40DF92EF92FF920F931F93CF93DF9300D023
S1130E5000D0CDB7DEB71B821C8219821A8200979C
S1130E6009F468C04115510509F464C05A017B01B5
S1130E706C018E010D5F1F4F20E030E041E060E225
S1130E8070E00E946406009709F059C0460180E2B0
S1130E90880E911C0250110920E030E041E060E22C
S1130EA070E0C4010E946406009709F048C02B81D9
S1130EB03C8189819A81280F391F2B5F3F4FE114B0
S1130EC0F10451F0F501808191818217930720F498
S1130ED02083318323E031C0F50120833183E11481
S1130EE0F10451F183E0F70180838EEF820F818357
S1130EF0128280E38383255024838E010D5F1F4F6C
S1130F0097012B5F3F4F41E060E270E0C6010E9411
S1130F1064060097A1F42B813C812B5F3F4F2E0D7B
S1130F203F1D0250110941E060E270E0C4010E94DB
S1130F30640605C022E001C020E090E001C0282F33
S1130F40822F2496CDBFDEBFDF91CF911F910F91E9
S1130F50FF90EF90DF90CF90BF90AF909F908F90D5
S1130F6008956115710519F0FB0180831182CB018D
S1130F70089508950F931F93CF93DA01FB018B011A
S1130F80080F191F20E030E00E171F07C9F0C191A8
S1130F9068E070E091E0832F881F8827881F220F64
S1130FA0331F41E05C2F592309F440E0481719F03E
S1130FB085E028273058990F6150710961F7E4CF13
S1130FC02C9311963C93CF911F910F910895BC01DE
S1130FD06F5F7F4FFC018181825090E0AB01480F2D
S1130FE0591F0C94BA07FB0180E48283838184FF38
S1130FF002C08AE001C087E08183CF010E94E70735
S113100080E00895FB018381982F937026E1228369
S1131010923010F48BE107C0933059F485FF02C07D
S113102087E401C087E28183CF010E94E70780E063
S1131030089582EE0895CB012BE1FB01228327E082
S113104021830E94E70780E00895CB0122E0FB01A1
S1131050228327E021830E94E70780E00895CB01E3
S113106021E4FB01228327E021830E94E70780E03B
S11310700895EF92FF920F931F93CF93DF9300D0C5
S1131080CDB7DEB77C01FC0180818250082F10E0CF
S1131090AE014F5F5F4FB701C8010E94BA07F70165
S11310A0E00FF11F99818081981306C09A81818194
S11310B0981302C080E001C085EE0F900F90DF917D
S11310C0CF911F910F91FF90EF9008950F931F936D
S11310D0CF93DF9300D000D0CDB7DEB78C018091E1
S11310E0909C9091919CA091929CB091939C8983A7
S11310F09A83AB83BC8344E050E0BE016F5F7F4FB3
S1131100C8010E94F12D892B41F1F80180818430BE
S113111021F581818730C9F038F4833091F085302E
S113112091F08130C1F41BC08F3089F020F48830F5
S113113091F48AEF15C0813161F08F3F61F484ED41
S11311400FC082ED0DC086ED0BC087ED09C084EFA2
S113115007C083EF05C081EE03C080E001C081EDCC
S11311602496CDBFDEBFDF91CF911F910F910895DB
S1131170EF92FF920F931F93CF93DF93FB0100979E
S113118019F480E090E01CC03097D9F3608171813C
S113119061157105B1F322813381232B91F38F0102
S11311A0EC0189810E94B1077C01F801628173819D
S11311B0CE010E94640AEF2821F3892B11F3C801A0
S11311C0DF91CF911F910F91FF90EF900895FC0153
S11311D0808191810895FC018281938108950F9308
S11311E01F93CF93DF938C01FC01C081D1812097A1
S11311F039F0CE010E94B907CE0102960E94F3098C
S1131200F80110821182DF91CF911F910F910895FF
S1131210CF93DF93FB019081913031F0D0F0923085
S113122039F0933049F011C093E129E233EA1CC04C
S113123094E12DEE32EA18C09181983271F098361B
S113124081F096E12BEA32EA0FC090E020E030E032
S11312500BC09EE022E633EA07C096E129E632EAB3
S113126003C096E127E232EA4FEF5FEF42835383F4
S113127040E0491789F0D9012D5F3F4FE9012397D9
S11312805881581307C011968D919C9112978283AF
S1131290938302C04F5FEDCF82819381019611F455
S11312A082EF01C080E0DF91CF910895AF92BF92A9
S11312B0CF92DF92EF92FF921F93CF93DF9300D0F0
S11312C0CDB7DEB77C016B01DB016D917C91FC0134
S11312D082810E940809811157C0D601ED91FC91C9
S11312E01197A280B38012968D919C9113970E94BE
S11312F0DC09182F811142C0F701418150E0B70188
S1131300D60112968D919C9113970E94D009182FA3
S1131310811134C0B50180E090E00E943F15B6E031
S1131320EB0EF11C80ECF70111928A95E9F780EC41
S113133090E089839A83AE014F5F5F4FB701D60176
S113134012968D919C9113970E94D609182F8111A2
S113135015C089819A818430910520F4892B69F420
S113136017EE0CC0C7010E943908182F811106C05E
S1131370C7010E946608182F01C016EEF60182818B
S113138093810E94E209812F0F900F90DF91CF91FA
S11313901F91FF90EF90DF90CF90BF90AF90089592
S11313A0DC011796ED91FC9118970994DC011996CC
S11313B0ED91FC911A970994DC011B96ED91FC9137
S11313C01C970994CF93DC011D96ED91FC911E9717
S11313D00995C82F61E070E080E090E00E943F151D
S11313E08C2FCF910895CF93DF93EC01E881F9819D
S11313F0309729F06189728980810E949314188240
S11314001982DF91CF9108950F931F93CF93DF93A8
S1131410EC018B0189819A810E946814F801808112
S113142091818B839C83828193818D839E8384812C
S113143095818F8398878681978189879A8780850C
S113144091858B879C87848595858F87988B8285EA
S113145093858D879E8780899189898B9A8B80E07B
S1131460DF91CF911F910F9108950F931F93CF9305
S1131470DF93CDB7DEB76297CDBFDEBF8C01BE016F
S11314806F5F7F4F0E94040AD80111966D917C9181
S113149012971396ED91FC911497CE01019609953C
S11314A081110AC089899A89F801818B928B058000
S11314B0F681E02DC80109956296CDBFDEBFDF91AC
S11314C0CF911F910F910895CF93DF93611571050B
S11314D019F480E090E00EC00097D9F3EB01FC0111
S11314E02081288389839A83CB010E94350A811144
S11314F0F0CFCE01DF91CF9108950F931F93CF9337
S1131500DF936091A6287091A7286115710511F4E5
S113151081EE2EC0EC010E94B8088093A628909317
S1131520A7280097A9F3FC0122813381232B81F39F
S1131530208131812115310559F389818330B9F432
S11315402F5F3F4F01E010E043E150E060E070E0C6
S113155080E00E941A0D81110BC0E091A628F09141
S1131560A7280190F081E02D8181887F818380E02C
S1131570DF91CF911F910F91089586EA98E20E941E
S1131580EF0880E00895CF93DF930097D1F0EC014A
S11315900E94E708892B11F481EE14C0CE010E9449
S11315A0EB08892BC9F38091A6289091A728892B51
S11315B011F00E94BD0AC093A628D093A72880E00A
S11315C001C082EEDF91CF9108950F931F93F8012C
S11315D0309719F18370833001F110821182922FB8
S11315E0977050E0292F30E0823041F063E0440FDF
S11315F0551F6A95E1F7242B352B0BC0542F442734
S1131600242B352B93E0660F771F9A95E1F7262B51
S1131610372B2083318380E001C082EE1F910F912C
S11316200895FA013097E1F1A091A628B091A72876
S113163012960D90BC91A02D11960D90BC91A02DE9
S113164011969C9191110BC0813091F028F0823059
S113165039F580E290E01AC088E590E017C0813047
S113166039F018F0823039F01BC080E890E00EC0E9
S113167080E490E00BC06830710518F484E290E0D7
S113168005C06830710531F480EA91E0808391836C
S113169080E008956031710518F488E490E0F6CF95
S11316A082EE0895EF92FF921F93CF93DF93CDB70D
S11316B0DEB7C75CD109CDBFDEBF7901E091A628B2
S11316C0F091A728208131818C836D837E8341151D
S11316D0510541F083E0FA01DE01179601900D9265
S11316E08A95E1F7BE016F5F7F4FC9010E94F3073E
S11316F0182F81111AC06091A6287091A728CE01D5
S113170001960E945609182F81110FC0E114F104AB
S113171061F04F81453048F050E043505109BE011B
S1131720685F7F4FC7010E94FE2D812FC953DF4F91
S1131730CDBFDEBFDF91CF911F91FF90EF90089551
S11317409B0140E050E0BC0180E00C94520B0F93ED
S11317501F93CF93DF93CDB7DEB7C75CD109CDBF5D
S1131760DEBFFA01A091A628B091A7284D915C9103
S1131770982F93708C836D837E83923010F494E160
S113178007C0933069F585FF02C090E401C090E280
S1131790DE01179601900D929A95E1F78901BE0139
S11317A06F5F7F4FCA010E94020881111CC06091C3
S11317B0A6287091A728CE0101960E94560981118E
S11317C012C00115110571F08F81833258F080E247
S11317D0FE013896D80101900D928A95E1F702C076
S11317E082EE01C080E0C953DF4FCDBFDEBFDF9181
S11317F0CF911F910F910895807C4032510511F4CF
S1131800836004C04034510541F4836220E030E039
S1131810AB0160E070E00C94A70B82EE08950F9387
S11318201F93CF93DF93CDB7DEB7C75CD109CDBF8C
S1131830DEBF8C01E091A628F091A72880819181D8
S11318401C821D821E82BE016F5F7F4F0E941B0897
S113185081111AC06091A6287091A728CE01019623
S11318600E945609811110C09F81933261F40115C1
S1131870110551F090E2FE013896D80101900D92C5
S11318809A95E1F701C086EEC953DF4FCDBFDEBFA5
S1131890DF91CF911F910F910895AF92BF92CF9294
S11318A0DF92EF92FF920F931F93CF93DF93CDB705
S11318B0DEB7C95CD109CDBFDEBFF82E6801012BAC
S11318C009F43FC084E0E81619F080E2E81239C058
S11318D0E091A628F091A728A080B1808E0108533A
S11318E01F4F8F2D0E94E50A81112CC080E2E8125F
S11318F003C08F2D8068F82EFC82C853DF4F888187
S11319009981C85CD0408D839E83BE016F5F7F4FF9
S1131910C5010E942508811115C06091A628709107
S1131920A728CE0101960E94560981110BC04E2DA5
S113193050E0BE01685F7F4FC6010E94FE2D80E02B
S113194001C082EEC753DF4FCDBFDEBFDF91CF9121
S11319501F910F91FF90EF90DF90CF90BF90AF90C9
S11319600895AF92BF92CF92DF92EF920F931F939D
S1131970CF93DF93CDB7DEB7A097CDBFDEBF6115A0
S1131980710509F449C09C012850310928303105FA
S113199008F042C06B015C0180E2E82E8E010F5F0B
S11319A01F4F20E040E0B50182E00E944D0C811100
S11319B034C08CE1FE013596D60101900D928A95D2
S11319C0E1F720E041E0B50182E00E944D0C811175
S11319D024C084E0F801D6015C9601900D928A95AA
S11319E0E1F788E1FE013996D601909601900D92B7
S11319F08A95E1F720E042E0B50182E00E944D0CB7
S1131A0081110BC0D601D89688E0F80101900D929F
S1131A108A95E1F780E001C082EEA096CDBFDEBFDB
S1131A20DF91CF911F910F91EF90DF90CF90BF90F6
S1131A30AF9008952F923F924F925F926F927F9250
S1131A408F929F92AF92BF92CF92DF92EF92FF92CA
S1131A500F931F93CF93DF93CDB7DEB7A597CDBF79
S1131A60DEBF19A21AA2833010F082EE93C0823036
S1131A7019F460317105C8F70115110511F480E0FE
S1131A8089C02115310589F328012CA33DA35A01EE
S1131A901B01F82EAE014F5D5F4F0E94110B8111A7
S1131AA079C029A13AA1C8018A0D9B1D28173907BD
S1131AB0E0F2350165E0769467946A95E1F720E2F7
S1131AC02BA3C12CD12C812C912C84149504B8F611
S1131AD08BA18032C1F489A19AA1930155E0220F10
S1131AE0331F5A95E1F7821B930B809760F46401CE
S1131AF0CA0CDB1CD694C794D694C79497E0C92229
S1131B00DD2424E02BA3EBA08E010F5F1F4F2C2DAF
S1131B10462DB1018F2D0E944D0C81113BC0C30194
S1131B2023E0880F991F2A95E1F78C0D9D1D880FDE
S1131B30991F880F991F8A159B0520F4B501681B0E
S1131B40790B02C060E070E02BA1822F90E0861B2D
S1131B50970B8201081919098017910708F48C0161
S1131B6081E090E08C0F9D1F680F791FA8018CA164
S1131B709DA1880D991D0E94FE2D800E911E9BA192
S1131B80903221F42FEF621A720A9FCF8FEFC81A96
S1131B90D80A9BCFA596CDBFDEBFDF91CF911F9111
S1131BA00F91FF90EF90DF90CF90BF90AF909F90F8
S1131BB08F907F906F905F904F903F902F900895FB
S1131BC00F931F93CF93DF93CDB7DEB7C75CD109D3
S1131BD0CDBFDEBF4115510549F18A01E091A62828
S1131BE0F091A728208131818C836D837E83BE018F
S1131BF06F5F7F4FC9010E942F0881111AC0609145
S1131C00A6287091A728CE0101960E945609811139
S1131C1010C04F81453060F050E043505109BE017F
S1131C20685F7F4FC8010E94FE2D02C082EE01C092
S1131C3080E0C953DF4FCDBFDEBFDF91CF911F914D
S1131C400F910895CF92DF92EF92FF920F931F931B
S1131C50CF938C016B017A0180E090E00E940F0C1D
S1131C60811123C0E091A628F091A7280190F0816A
S1131C70E02D8081833019F4C0E280E402C0C0E02A
S1131C8080E040E250E0B6010E94FC0B81110DC0DF
S1131C90A701B8018C2F8068CF911F910F91FF90FD
S1131CA0EF90DF90CF900C94E00DCF911F910F91A6
S1131CB0FF90EF90DF90CF900895CF92DF92EF9254
S1131CC0FF920F931F93CF93DF93CDB7DEB7C05C22
S1131CD0D109CDBFDEBF6C018B017A01CE01019623
S1131CE00E94D912980140E050E0B601CE0101965D
S1131CF00E94F112B701CE0101960E94A91380E05F
S1131D0090E0C054DF4FCDBFDEBFDF91CF911F9174
S1131D100F91FF90EF90DF90CF9008952F923F9214
S1131D204F925F926F927F928F929F92AF92BF92E7
S1131D30CF92DF92EF92FF920F931F93CF93DF9393
S1131D40CDB7DEB7C455D140CDBFDEBFC55BDE4FD6
S1131D5088839983CB54D140C15BDE4F2883398378
S1131D604A835B83CF54D140CB5CDE4F6883C55339
S1131D70D140CA5CDE4F7883C653D140CF5BDE4F7F
S1131D80188219821A821B82C154D1409E012F5B92
S1131D903F4FCF5DDE4F28833983C152D140AE011E
S1131DA04F535F4FCD5DDE4F48835983C352D140BB
S1131DB088559F4FC35BDE4F88839983CD54D140B0
S1131DC0CF5BDE4F688179818A819B81C154D14088
S1131DD0C15BDE4F488059806A807B80CF54D140FC
S1131DE0641575058605970509F4CCC3BE016F5FBC
S1131DF07F4FC95CDE4F68837983C753D140FB01B1
S1131E00CB5CDE4FA881B981C553D1408C918383CB
S1131E1011968C911197828312968C9112978183DB
S1131E2013968C911397808314963496CF5DDE4F6E
S1131E3088819981C152D140E817F90739F7C95C03
S1131E40DE4F28803980C753D1403101D101149627
S1131E504D915D916D917C911797D8968D919D913F
S1131E600D90BC91A02DE4E02E0E311C6A017B0183
S1131E7017E0F694E794D794C7941A95D1F78A019A
S1131E809B01E9E1000F111F221F331FEA95D1F7CF
S1131E90C02AD12AE22AF32A4A015B01FEE0880C17
S1131EA0991CAA1CBB1CFA95D1F78A019B01E2E19B
S1131EB03695279517950795EA95D1F70829192995
S1131EC02A293B290C251D252E253F256A017B0146
S1131ED0F3E0F694E794D794C794FA95D1F70C25D8
S1131EE01D252E253F25F301C080D180E280F3809B
S1131EF0F10140A151A162A173A1C40ED51EE61E39
S1131F00F71EC00ED11EE21EF31E8C019D014FE090
S1131F10000F111F221F331F4A95D1F7AC01BD01D9
S1131F20E1E17695679557954795EA95D1F7042BA6
S1131F30152B262B372BAC01BD01FDE0440F551F9B
S1131F40661F771FFA95D1F72C013D01E3E17694E2
S1131F50679457944794EA95D1F7442A552A662AF8
S1131F60772A4026512662267326FAE0B695A7956D
S1131F7097958795FA95D1F7482659266A267B26A0
S1131F804C0C5D1C6E1C7F1CD101DC964D925D9245
S1131F906D927C92DF97CD5DDE4FE881F981C3526B
S1131FA0D1402E163F0609F050CFC55BDE4F288086
S1131FB03980CB54D140F8E82F0E311C9E012F5F9D
S1131FC03E4FCD5ADE4F28833983C355D140C901D2
S1131FD0F1014191519161917191DC014D935D93B6
S1131FE06D937D93CD01C35BDE4F48805980CD5402
S1131FF0D140E415F50569F7CD5ADE4FA881B981C2
S1132000C355D1405C966D907D908D909C905F9768
S1132010C95BDE4F688279828A829B82C754D14031
S113202058964D905D906D907C905B97C35CDE4FAD
S1132030488259826A827B82CD53D14054964D9016
S11320405D906D907C905797C75CDE4F48825982B3
S11320506A827B82C953D14050968D919D910D9097
S1132060BC91A02DCD5ADE4FE881F981C355D140F2
S11320704484558466847784CB5DDE4F48825982DC
S11320806A827B82C552D1404084518462847384C5
S1132090CF5CDE4F488259826A827B82C153D14031
S11320A04480558066807780C35DDE4F48825982C4
S11320B06A827B82CD52D140008111812281338199
S11320C04CE853EACB5BDE4F48835983C554D14077
S11320D0CB5BDE4FE881F981C554D14041915191E8
S11320E061917191CB5BDE4FE883F983C554D14094
S11320F04C015D01EAE1880C991CAA1CBB1CEA9501
S1132100D1F76C017D01F6E0F694E794D794C79477
S1132110FA95D1F7C828D928EA28FB282C013D01D3
S1132120E5E1440C551C661C771CEA95D1F74C017B
S11321305D01FBE0B694A79497948794FA95D1F740
S113214084289528A628B7288C249D24AE24BF244F
S11321506C017D01E9E1F694E794D794C794EA957C
S1132160D1F72C013D01F7E0440C551C661C771C8B
S1132170FA95D1F7C428D528E628F728C824D92405
S1132180EA24FB24C95CDE4FE881F981C753D140BE
S113219081909190A190B190C95CDE4FE883F9835E
S11321A0C753D140480D591D6A1D7B1D4C0D5D1D43
S11321B06E1D7F1D2C013D014094509460947094D9
S11321C0C35CDE4F88809980AA80BB80CD53D14008
S11321D0482059206A207B20C75CDE4FC880D98004
S11321E0EA80FB80C953D140C822D922EA22FB22CB
S11321F0C424D524E624F7244C0D5D1D6E1D7F1DDB
S1132200C95BDE4FA880B980CA80DB80C754D14047
S11322104A0D5B1D6C1D7D1DCB5DDE4FC880D980D2
S1132220EA80FB80C552D140C40ED51EE61EF71EBF
S1132230C75DDE4FC882D982EA82FB82C952D1408F
S113224048015901EEE1880C991CAA1CBB1CEA95B3
S1132250D1F768017901F2E0F694E794D794C79432
S1132260FA95D1F7C828D928EA28FB28280139018A
S1132270E3E1440C551C661C771CEA95D1F7480130
S11322805901FDE0B694A79497948794FA95D1F7F1
S1132290482859286A287B28C424D524E624F7240E
S11322A028013901E6E17694679457944794EA95B6
S11322B0D1F748015901FAE0880C991CAA1CBB1CEF
S11322C0FA95D1F784289528A628B7282401350142
S11322D04C245D246E247F24CB5DDE4F48825982DA
S11322E06A827B82C552D140C35DDE4F48805980EB
S11322F06A807B80CD52D140CF5CDE4F888099804C
S1132300AA80BB80C153D140482459246A247B2429
S11323104022512262227322C35DDE4FC880D980DD
S1132320EA80FB80CD52D140C820D920EA20FB208E
S1132330C424D524E624F724CB5DDE4F488059809D
S11323406A807B80C552D140C40CD51CE61CF71CA6
S1132350C40ED51EE61EF71EC35CDE4F688079806E
S11323608A809B80CD53D140C95BDE4F68827982DD
S11323708A829B82C754D140CF5CDE4F888099808B
S1132380AA80BB80C153D140CB5DDE4F8882998245
S1132390AA82BB82C552D140CB5BDE4F48815981B2
S11323A0C554D1404C58544AD9F1C75CDE4F4880DB
S11323B059806A807B80C953D140C35CDE4F488218
S11323C059826A827B82CD53D140C75CDE4F8883B9
S11323D09983AA83BB83C953D140C75DDE4F8881EB
S11323E09981AA81BB81C952D140C35DDE4F688007
S11323F079808A809B80CD52D140CF5CDE4F688249
S113240079828A829B82C153D140C35DDE4F0883A7
S113241019832A833B83CD52D1409701860158CE3C
S1132420CF5FDE4FC882D982EA82FB82C150D1409D
S1132430CB5FDE4F088319832A833B83C550D14089
S1132440C35DDE4F488059806A807B80CD52D14085
S1132450C75FDE4F488259826A827B82C950D1406D
S1132460C75DDE4F688079808A809B80C952D140E5
S1132470CF5EDE4F688279828A829B82C151D140CD
S1132480CB5EDE4F88839983AA83BB83C551D14039
S1132490C75CDE4F88809980AA80BB80C953D14035
S11324A0C75EDE4F88829982AA82BB82C951D1401D
S11324B0C35CDE4FA880B980CA80DB80CD53D14095
S11324C0C35EDE4FA882B982CA82DB82CD51D1407D
S11324D0CF5CDE4FC880D980EA80FB80C153D140F5
S11324E0C35FDE4FC882D982EA82FB82CD50D140DD
S11324F0CD5ADE4FE881F981C355D1408191919144
S1132500A191B191CD5ADE4FE883F983C355D140EF
S1132510F1014081518162817381840F951FA61F4F
S1132520B71F81939193A193B1931F01C35BDE4FB6
S113253048805980CD54D1404E165F06C9F6CF5B12
S1132540DE4F288139814A815B81C154D1402F5F9C
S11325503F4F4F4F5F4FCF5BDE4F288339834A8312
S11325605B83C154D140CB5CDE4F48815981C55354
S1132570D140405C5F4FCB5CDE4F48835983C553E9
S1132580D1401ECCCC5ADE4FCDBFDEBFDF91CF9100
S11325901F910F91FF90EF90DF90CF90BF90AF907D
S11325A09F908F907F906F905F904F903F902F906F
S11325B0089528EAFC0111922A95E9F7ACE8B4EAF7
S11325C0FC01E857FF4F88559F4F4D915D916D91E8
S11325D07D914193519361937193E817F907A9F79A
S11325E008952F923F924F925F926F927F928F92B3
S11325F09F92AF92BF92CF92DF92EF92FF920F938E
S11326001F93CF93DF93EC018B0149015A018C8115
S11326109D81AE81BF8140E4C42ED12CE12CF12CEC
S1132620C81AD90AEA0AFB0A8C149D04AE04BF0432
S113263010F4750164010896A601B8018C0F9D1F62
S11326400E94FE2D8C819D81AE81BF81880D991DD4
S1132650AA1DBB1D80349105A105B105B8F48C8376
S11326609D83AE83BF83DF91CF911F910F91FF9024
S1132670EF90DF90CF90BF90AF909F908F907F901E
S11326806F905F904F903F902F9008951E0188E0C7
S1132690280E311C21E030E040E050E0B101CE01D1
S11326A00E948E0E8C189D08AE08BF0824013501C7
S11326B086E076946794579447948A95D1F7B80145
S11326C06C0D7D1DA3019201CE010E948E0ED301DB
S11326D0C2010196A11DB11D26E0880F991FAA1FF2
S11326E0BB1F2A95D1F7488159816A817B81840F68
S11326F0951FA61FB71F88839983AA83BB83B5013F
S1132700A4014F735527662777274C835D836E8317
S11327107F8336E0440C551C3A95E1F7C40CD51C74
S1132720C8018C0D9D1DBC01C101DF91CF911F918A
S11327300F91FF90EF90DF90CF90BF90AF909F905C
S11327408F907F906F905F904F903F902F900C945C
S1132750FE2D8F929F92AF92BF92CF92DF92EF9213
S1132760FF920F931F93CF93DF93EC018B014C8166
S11327705D816E817F81C880D980EA80FB80C40E30
S1132780D51EE61EF71EC882D982EA82FB8283E048
S1132790CC0CDD1CEE1CFF1C8A95D1F787EF9FEF54
S11327A0AFEFBFEF841B950BA60BB70B4C015D017C
S11327B02FE382229924AA24BB24DB01CA010196B7
S11327C0A11DB11D8C839D83AE83BF83FE01E40FE5
S11327D0F51F20E82087A4014C5F5F4F089660E056
S11327E070E08C0F9D1F0E94192E8C819D81AE81FB
S11327F0BF81880D991DAA1DBB1DAC01BD014C5F95
S11328005F4F6F4F7F4FFE01E40FF51FF086AC0161
S1132810BD014B5F5F4F6F4F7F4FFE01E40FF51F0C
S1132820E086AC01BD014A5F5F4F6F4F7F4FFE01F1
S1132830E40FF51FD086AC01BD01485F5F4F6F4FB9
S11328407F4F4C835D836E837F830796A11DB11DEB
S1132850FE01E80FF91FC0869A01AB0196E0569578
S11328604795379527959A95D1F7BE01685F7F4FB5
S1132870CE010E948E0EC801FE01E857FF4FC855D5
S1132880DF4F9C012C5F3F4FD90140814E93408123
S1132890518162817381452F562F672F772740839B
S11328A0518362837383A817B90779F73496C901F2
S11328B0EC17FD0731F7DF91CF911F910F91FF9036
S11328C0EF90DF90CF90BF90AF909F908F9008953E
S11328D0FB01DC018C91811124C08AE994E180839D
S11328E091838EE994E1828393838AEA94E18683D7
S11328F0978380EA94E18483958386EC94E18487CA
S113290095878CEF94E18087918782EB94E18287AD
S113291093878DE395E186879787108A118A80E0F3
S1132920089580EF0895811103C0CB010C943D15E7
S113293081EE08950E94E41880E0089580E00895EF
S113294083E0FB0180834F5F5F4F88E50E94BA19E3
S113295080E00895FA014081518188E50E94DD19E3
S113296080E00895CF93DF931F92CDB7DEB782E066
S1132970898341E050E0BE016F5F7F4F88E50E948C
S1132980BA1980E00F90DF91CF910895CF93DF9330
S11329901F92CDB7DEB781E0898341E050E0BE01EC
S11329A06F5F7F4F88E50E94BA1980E00F90DF9136
S11329B0CF910895CF93DF931F92CDB7DEB789836C
S11329C089810E94EC188823D9F360E070E08AEFD3
S11329D099E10E94DA1861E070E0CE0101960E944C
S11329E06A1980E00E947C190E9445198130E1F344
S11329F00F90DF91CF910895CF93DF93CDB7DEB7DA
S1132A002897CDBFDEBF41E060E070E080E00E9427
S1132A10DA1487E893E10197F1F700C00000809190
S1132A20949C9091959CA091969CB091979C89833D
S1132A309A83AB83BC8344E050E0BE016B5F7F4F5D
S1132A4088E50E94DD19FE013596DE0111969E018E
S1132A50275F3F4F81E041919D91491380E0E21748
S1132A60F307C9F7811102C080EF01C080E0289606
S1132A70CDBFDEBFDF91CF91089580E00895611549
S1132A8071058105910559F0E3ECF9E03197F1F70F
S1132A9000C000006150710981099109F0CF0895C7
S1132AA08DE298E20E94C30A87E098E20E947D0AC0
S1132AB08111109206280895CF93DF93CDB7DEB726
S1132AC0C05CD440CDBFDEBF0E94FD0078940E945C
S1132AD050150E949C1A2EE030E040E050E060E087
S1132AE0CE018F549B4F0E94381BCE018F549B4FB5
S1132AF00E94CB1FE12CF12C8E010F5F1F4F9CED28
S1132B00A92E95E0B92E20E4422E512C612C712C73
S1132B100E942E1AF801EE0DFF1D882329F08083F0
S1132B20C70101967C01F4CF10826AE370E0C8010A
S1132B300E942B2EFC0111927F016CEA74EAC801F9
S1132B400E94362E892B19F5F70101900020E9F730
S1132B50CF010197B7018E199F090E94130140927A
S1132B60D8295092D9296092DA297092DB2980E41D
S1132B70F701A6E6B8E201900D928A95E1F787E0A5
S1132B80E8E9FCE9D80101900D928A95E1F765EB3B
S1132B9074EAC8010E94362E892B01F5F7010190D1
S1132BA00020E9F7CF010197B7018E199F090E9410
S1132BB013016C01AC01B7018091E4299091E529DE
S1132BC00E94FE2DC092172AD092182A87E0E8E9C5
S1132BD0FCE9D80101900D928A95E1F76CEB74EA57
S1132BE0C8010E94362E892B01F5F70101900020BF
S1132BF0E9F7CF010197B7018E199F090E941301CC
S1132C006C01AC01B7018091E2299091E3290E9403
S1132C10FE2DC0922938D0922A3887E0E8E9FCE9F1
S1132C20D80101900D928A95E1F767EC74EAC80126
S1132C300E94362E892B71F40E94501580E090E09A
S1132C400E94C02B87E0E8E9FCE9D80101900D92CD
S1132C508A95E1F76CED74EAC8010E94362E892B3F
S1132C6071F5C154DB4FA882B982CF5BD440AE0169
S1132C7041545B4F69E17AE28FED90EA0E94AC0126
S1132C8069E17AE2C154DB4F88819981CF5BD440FA
S1132C900E944F01C154DB4F48815981CF5BD4401E
S1132CA0440F551FFA01E75EF54D10824F5F5F4FE9
S1132CB069E17AE2C8010E94FE2D0E94862B780108
S1132CC0F80101900020E9F73197E01BF10BC701EF
S1132CD0801B910BE817F90730F0F70181917F0110
S1132CE00E94351AEDCFE12CF12C12CF80E008952B
S1132CF041E068ED81E690E00E94FE1980E00895CD
S1132D0080E00895E0E1F4E0808188608193E83117
S1132D1084E0F807C9F7E0E3F4E0808188608193F8
S1132D20E83384E0F807C9F7E0E5F4E080818860DF
S1132D308193E83584E0F807C9F7E0E7F4E080819F
S1132D4088608193E83784E0F807C9F7E0E9F4E0A4
S1132D50808188608193E83984E0F807C9F7E0EB63
S1132D60F4E0808188608193E83B84E0F807C9F748
S1132D700895A198E1EBF4E08081877F8083A09A95
S1132D80A8980C941E1A0598E5E1F4E08081877FE9
S1132D908083049A0C98069A0E980C94041A039A49
S1132DA00B98E3E1F4E08081877F808380818F77D3
S1132DB080838081887F8083029A0A98E2E1F4E02C
S1132DC08081877F808380818F7780838081887FE3
S1132DD080830C94E4180E948216019A0998079A39
S1132DE00F9A609A689A619A699A629A6A9A639A3F
S1132DF06B9AA298AA98E2EBF4E0808188608083C1
S1132E0080818F7780838081887F83608083A39A89
S1132E10AB98A49AAC98A598E5EBF4E0808188601F
S1132E208083A698E6EBF4E08081886080830E942A
S1132E3078160E94B9160E94C3160E9480160E943A
S1132E40021A0E94CF160C947616E0EAF8E0848108
S1132E5088608483858181608583E8EAF8E28081E3
S1132E608E7F808313868EE00895E8EAF8E28081FD
S1132E708E7F8083138680E00895E0EAF8E0848101
S1132E8083608483E8EAF8E280818E7F80831386FE
S1132E9080E00895E8EAF8E2808188608083818197
S1132EA0880F81608093A70884E008950C944A17E2
S1132EB0E8EAF8E28081886080838181880F8093CA
S1132EC0A70883E008950C9458178091A828877F59
S1132ED08093A82882E08093B328E091B828F091E9
S1132EE0B9288091C4289091C5280995823021F091
S1132EF0833021F40C9458170C944A170C943D1702
S1132F00E0EAF8E084818B7F848384E00895E0EA3A
S1132F10F8E084818B7F848383E00895E0EAF8E01D
S1132F20848184608483848183608483E8EAF8E212
S1132F3080818E7F8083138680E00895E0EAF8E044
S1132F4084818460848388E008958091A5088860E2
S1132F508093A50882E08093B328E091B628F0918D
S1132F60B7288091C2289091C3280995823021F016
S1132F70833021F40C9458170C944A170C94251799
S1132F80E0EAF8E0848188608483858181608583B8
S1132F90E8EAF8E280818E7F808382E083878EE096
S1132FA008958091A508806C8093A5088091A82835
S1132FB083FF07C08091A50884FF03C08FE080933E
S1132FC0B2288091A50883FF03C080E18093B228D2
S1132FD08091A50882FF03C081E18093B228E0912B
S1132FE0B228F0E0EE0FFF1FEF5CF74D0190F08187
S1132FF0E02D09958093B228089581E0089585E035
S1133000089590E0FC01EE0FFF1FEC54F74D61159D
S1133010710551F060837183880F991FFC01E0549E
S1133020F74D4083518308952DEF37E12083318399
S1133030880F991FFC01E054F74D10821182089506
S11330408091A50884FF13C0E091BA28F091BB28B1
S11330508091C6289091C7280995823021F0833049
S113306021F40C9458170C944A170C943D17809132
S1133070A828877F8093A828E091AA28F091AB28FC
S1133080CF0101968093AA289093AB2880818093E6
S1133090A8088091AC289091AD2801978093AC2822
S11330A09093AD28892B11F485E0089583E0089569
S11330B08091A828877F8093A8288091AC2890913C
S11330C0AD282091A4088130910511F4246001C039
S11330D02B7F2093A40801978093AC289093AD286C
S11330E0E091AA28F091AB28892B09F58091A808D2
S11330F080838091AA289091AB2801968093AA2876
S11331009093AB288091A82884608093A828E091AC
S1133110B428F091B5288091C0289091C1280995D0
S11331208250823010F40C949E170C948E17809168
S1133130A80880838091AA289091AB280196809357
S1133140AA289093AB288091A40882608093A40855
S113315084E008958091A50884FF0EC0E091BA2808
S1133160F091BB288091C6289091C7280995823098
S1133170B9F08330B9F01AC08091A8288460809394
S1133180A828E091B428F091B5288091C0289091A6
S1133190C1280995833031F0843031F0823031F424
S11331A00C944A170C9458170C9420180C943D173F
S11331B00C944A17AB01BC0180E00C940118AB01DC
S11331C0BC0182E00C940118E0EAF8E08DE2868309
S11331D081EC8383158208959091A82891FD53C0B2
S11331E08093A928892F847F9EE09093B22824EFAE
S11331F031E02093B0283093B128826084608093BA
S1133200A8288DEF97E18093B4289093B528109265
S1133210C0281092C1288093B6289093B7281092A2
S1133220C2281092C3288093B8289093B92810928A
S1133230C4281092C5288093BA289093BB28109272
S1133240C6281092C7288FEF97E18093BC289093EB
S1133250BD281092C8281092C9288091A4088860BB
S11332608093A4088091A50881608093A50880912B
S1133270A508806C8093A5088091A308806C809336
S1133280A30880E0089581E008958091A50882FF55
S113329008C08091A8288E7F8093A82882E080931C
S11332A0B3288091A82880FD13C08D7F8093A8281F
S11332B08FEF8093A9288091A508806C8093A5083E
S11332C08091A3088F738093A3088091B3280895F5
S11332D081E008959C019091A82892FF0CC020934E
S11332E0AA283093AB286093AC287093AD28892F1B
S11332F08B7F8093A82808959091A82890FD0EC0F4
S113330091609093A828882311F081E001C082E0A5
S11333108093B2280E94D11780E0089581E0089537
S113332081E00C947C1980E00C947C191F920F921C
S11333300FB60F9211242F933F934F935F936F9384
S11333407F938F939F93AF93BF93EF93FF930E94C9
S1133350D117FF91EF91BF91AF919F918F917F9181
S11333606F915F914F913F912F910F900FBE0F90EE
S11333701F901895FF920F931F93CF93DF93F82E0E
S1133380EB018A018F2D0E94EC188823D9F3B80130
S1133390CE010E946A1960E070E08CEF99E10E940E
S11333A0DF180E9493190E9445198130E1F3DF91DF
S11333B0CF911F910F91FF900895FF920F931F9348
S11333C0CF93DF93F82EEB018A018F2D0E94EC1826
S11333D08823D9F3B801CE010E946A190E9490197A
S11333E00E9445198130E1F3DF91CF911F910F9134
S11333F0FF90089581E0089583E00895FC0164BF7F
S11334004083089580E0089581E28093C00810927B
S1133410CC280895E0ECF8E08081816080830895F1
S11334209091CC28923009F4FFCF8093C408809106
S1133430C30887FFFCCF8091C4080895E0E4F8E056
S11334408BE591E08087918780EC868385E598E21F
S1133450809331389093323880E008958091440805
S113346087FFFCCF8091400808959091440895FF10
S1133470FCCF8093420808950E94351A80E090E0C2
S11334800895E2EBF4E09081987F892B808308957E
S11334901F920F920FB60F9211242F933F934F93C5
S11334A05F936F937F938F939F93AF93BF93EF93A8
S11334B0FF93B29907C0E091CD28F091CE283097C0
S11334C009F0099584E087BBFF91EF91BF91AF911B
S11334D09F918F917F916F915F914F913F912F9128
S11334E00F900FBE0F901F901895611571058105FF
S11334F0910559F0E3ECF9E03197F1F700C00000D1
S11335006150710981099109F0CF0895AB98099828
S11335106AE070E080E090E00E94751AAB9A64E182
S113352070E080E090E00E94751A099A64E670E009
S113353080E090E00C94751A1092CD281092CE2859
S1133540019AA39AA49A0E94861A789480E0089516
S11335508093CD289093CE28A298E2EBF4E080816A
S11335608860808383E00E94411A83E00C94411AAE
S1133570882311F083E001C080E00C94411A079A7B
S11335800F9A049A0C9A0598069A0E980E94041AA7
S11335900E940A1A0E94861A61E070E080E090E0BE
S11335A00E94751A80E00895AF92BF92CF92DF9285
S11335B0EF92FF920F931F93CF93DF931F92CDB798
S11335C0DEB7FB018330A9F5C480D580E280F380A7
S11335D00081118119820115110549F0EF2839F58F
S11335E0BB24B394A12CCE0101967C0106C0B12C5E
S11335F0AA24A3948E010F5F1F4F0F98C114D10406
S113360099F0F80180810E94101AF7018083F1E09B
S1133610CF1AD108B11003C08FEFE81AF80AA1102D
S1133620EDCF0F5F1F4FEACF0F9A80E003C08AEF00
S113363001C08FEF0F90DF91CF911F910F91FF90F9
S1133640EF90DF90CF90BF90AF90089580E0089501
S1133650211531054105510551F0FB016191DC0152
S11336606D93CD012150310941095109B9F70895EC
S1133670211531054105510541F0FC016193CF014C
S11336802150310941095109F3CF0895FC019F01EB
S1133690281B390B41914111FACFC9010895EDEF6F
S11336A0F9E283818F5F838308950895CF93DF9335
S11336B000D000D0CDB7DEB71092FF2981E00E9480
S11336C0B81AAE014F5F5F4F60E770E180E090E0B1
S11336D00E944323811111C089819A81AB81BC81ED
S11336E09C01AD01226029833A834B835C8360E7AC
S11336F070E180E090E00E9445232496CDBFDEBFB8
S1133700DF91CF9108958091FF29811113C0809199
S1133710FE29882331F08091FE298F5F8093FE2952
S113372009C08091FD298823B1F30E949121882347
S113373091F3089580E008958091FE29882329F06B
S11337408091FE2981508093FE2980E00895809124
S1133750FE29882329F08091FE2981508093FE2937
S11337608091FE29811105C08091FD2981110C945D
S1133770372180E008952AE130E040E050E060E045
S11337808DEF99E20E94381B8FE49BE10E94A81AF6
S113379085E59BE18093112A9093122A80E0089595
S11337A02F923F924F925F926F927F928F929F924D
S11337B0AF92BF92CF92DF92EF92FF920F931F933B
S11337C0CF93DF93CDB7DEB76297CDBFDEBF482E70
S11337D0562E3A0149015801862F8F778E874D86E0
S11337E088E090E08F87988B8F859889012B29F04A
S11337F08E0D9F1D8C0D9D1D02C0820F931F8F8700
S1133800988B0E94831B811140C11D821E821F82DE
S11338101886198A1A8A19861A861B861C8689852F
S11338209A85AB85BC85842989879A87AB87BC87B1
S113383089859A85AB85BC85952989879A87AB87C5
S1133840BC872F85388949855A856B857C85C90154
S1133850A0E0B0E0DC0199278827842B952BA62BC8
S1133860B72B89879A87AB87BC8729853A854B858F
S11338705C856CE870E180E090E00E944523182F9D
S1133880811100C119861A861B861C8689859A8532
S1133890AB85BC85826089879A87AB87BC8729857D
S11338A03A854B855C8568E770E180E090E00E9492
S11338B04523182F8111E6C01D821E821F8218869F
S11338C0198A1A8A89899A89883E934058F4AE01E4
S11338D0475F5F4F68E770E180E090E00E94432318
S11338E0882349F08D819E81AF81B885892B8A2BED
S11338F08B2B59F5C3C089899A89843F914040F044
S113390089899A8961E070E080E090E00E94751AEC
S113391089859A85AB85BC8581FD11C0AE014B5F5D
S11339205F4F60E074E085E190E00E944323182F2C
S11339308823C1F21D821E821F821886A3C0898932
S11339409A890196898B9A8BBDCF8D819E81AF8197
S1133950B88589839A83AB83BC838F8598898F8745
S1133960988B69817A818B819C8108E010E020E04A
S113397030E0AE01435F5F4F0E94C423182F8111D2
S113398081C089819A81AB81BC810896A11DB11D3A
S113399089839A83AB83BC8361147104D9F01401C5
S11339A0412C512C69817A818B819C819201810106
S11339B0A3010E94C423182F811164C089819A81B4
S11339C0AB81BC81820D931DA41DB51D89839A838F
S11339D0AB83BC83A114B10449F189819A81AB8181
S11339E0BC81C818D9088C0D9D1DA11DB11D8983EA
S11339F09A83AB83BC832701612C712C69817A8102
S1133A008B819C8193018201A5010E94C423182FFC
S1133A10811138C089819A81AB81BC81840D951D47
S1133A20A61DB71D89839A83AB83BC838D819E8138
S1133A30AF81B88522E0880F991FAA1FBB1F2A9562
S1133A40D1F789879A87AB87BC8789859A85AB85A7
S1133A50BC85826089879A87AB87BC8729853A852C
S1133A604B855C856CE670E180E090E00E94452324
S1133A70182F811107C00E94A71B07C00E94A71B13
S1133A808DEF03C00E949C1B812F6296CDBFDEBFC9
S1133A90DF91CF911F910F91FF90EF90DF90CF9026
S1133AA0BF90AF909F908F907F906F905F904F905A
S1133AB03F902F9008954F925F926F927F928F92D2
S1133AC09F92AF92BF92CF92DF92EF92FF920F93A9
S1133AD01F93CF93C02F611571058105910531F0B6
S1133AE04115510519F02115310519F4C1115EC0B4
S1133AF06EC0890120E030E0C090052AD090062AEB
S1133B00E090072AF090082AC016D106E206F306D0
S1133B1008F45DC0C090012AD090022AE090032AE4
S1133B20F090042A6C157D058E059F0508F44FC09E
S1133B306B017C01C00ED11EE21EF31E4090012ACF
S1133B405090022A6090032A7090042A8090052ADB
S1133B509090062AA090072AB090082A840C951CFD
S1133B60A61CB71C8C149D04AE04BF0480F10E94F3
S1133B70472381112DC00091012A1091022A20911E
S1133B80032A3091042A4091052A5091062A609113
S1133B90072A7091082A400F511F621F731FC41611
S1133BA0D506E606F70611F0CC2391F0CF911F91CC
S1133BB00F91FF90EF90DF90CF90BF90AF909F90C8
S1133BC08F907F906F905F904F900C94561B84EF72
S1133BD0CF911F910F91FF90EF90DF90CF90BF9006
S1133BE0AF909F908F907F906F905F904F900895CB
S1133BF090E0FC013197E730F10540F5E85BFF4FB9
S1133C000C94CA2C60930B2A70930C2A1DC06093E9
S1133C10092A70930A2A18C060930D2A70930E2AF9
S1133C2013C06093112A7093122A0EC06093132A52
S1133C307093142A09C060930F2A7093102A04C049
S1133C406093152A7093162A80E0089584EF0895EE
S1133C50CF92DF92EF92FF920F931F93C12CD12C3E
S1133C607A018C0120E030E040E050E064E885E037
S1133C700E94D01B1F910F91FF90EF90DF90CF9087
S1133C800895CF92DF92EF92FF920F93CF93DF9339
S1133C90CDB7DEB7C456D109CDBFDEBF69017A0105
S1133CA08C32C1F400E024E030E0AE014F5F5F4F9E
S1133CB0C701B6010E945B1D811161C1E091CF284B
S1133CC0F091D028309709F45AC1BE016F5F7F4F3D
S1133CD08CE254C18B31C1F400E028E030E0AE0145
S1133CE04F5F5F4FC701B6010E945B1D811147C141
S1133CF0E091CF28F091D028309709F440C1BE015B
S1133D006F5F7F4F8BE13AC18630C1F401E020E35D
S1133D1030E0AE014F5F5F4FC701B6010E945B1DEB
S1133D2081112DC1E091CF28F091D028309709F46A
S1133D3026C1BE016F5F7F4F86E020C18E3009F43B
S1133D401EC18233C1F400E024E130E0AE014F5FD4
S1133D505F4FC701B6010E945B1D811110C1E09144
S1133D60CF28F091D028309709F409C1BE016F5FC4
S1133D707F4F82E303C18F3209F524E630E040E04F
S1133D8050E060E0CE0101960E94381B00E024E67A
S1133D9030E0AE014F5F5F4FC701B6010E945B1D6B
S1133DA08111EDC0E091CF28F091D028309709F42B
S1133DB0E6C0BE016F5F7F4F8FE2E0C08433B9F489
S1133DC000E024E030E0AE014F5F5F4FC701B60171
S1133DD00E945B1D8111D3C0E091CF28F091D028BF
S1133DE0309709F4CCC060E070E084E3C7C081314F
S1133DF0E9F41092D12800E024E030E0AE014F5FF6
S1133E005F4FC701B6010E945B1D8111B8C0898153
S1133E108093D228E091CF28F091D028309709F4EC
S1133E20AEC0BE016F5F7F4F81E1A8C08331C1F492
S1133E3000E02CE230E0AE014F5F5F4FC701B601F6
S1133E400E945B1D81119BC0E091CF28F091D02886
S1133E50309709F494C0BE016F5F7F4F83E18EC039
S1133E608430C1F400E024E030E0AE014F5F5F4FE6
S1133E70C701B6010E945B1D811181C0E091CF286A
S1133E80F091D028309709F47AC0BE016F5F7F4F5C
S1133E9084E074C08536C1F400E024E030E0AE0173
S1133EA04F5F5F4FC701B6010E945B1D811167C060
S1133EB0E091CF28F091D028309709F460C0BE017A
S1133EC06F5F7F4F85E65AC08930C1F401E024E674
S1133ED030E0AE014F5F5F4FC701B6010E945B1D2A
S1133EE081114DC0E091CF28F091D028309709F48A
S1133EF046C0BE016F5F7F4F89E040C08A32B9F48B
S1133F0001E024E030E0AE014F5F5F4FC701B6012E
S1133F100E945B1D811133C0E091CF28F091D0281D
S1133F20309769F1BE016F5F7F4F8AE227C080320C
S1133F3031F500E026E030E0AE014F5F5F4FC7018E
S1133F40B6010E945B1D81111AC02B813C814981FD
S1133F505A81C701B6016A5F7F4F8F4F9F4F01E0BF
S1133F600E945B1D81110BC0E091CF28F091D028F5
S1133F70309729F0BE016F5F7F4F80E20995CC59DD
S1133F80DF4FCDBFDEBFDF91CF910F91FF90EF9058
S1133F90DF90CF9008951F93CF93DF93CDB7DEB713
S1133FA0A797CDBFDEBF21E02FA3009739F1FC0115
S1133FB0808191818093CF289093D0281092D1282A
S1133FC0CE0187960E94DE24182F811118C080E04C
S1133FD090E00E94BB1B182F81110BC061E47EE1AD
S1133FE081E00E94F81DCE0101960E944124182F01
S1133FF006C080E090E00E940C2501C014EF812FE0
S1134000A796CDBFDEBFDF91CF911F910895CF92C8
S1134010DF92EF92FF92CF93DF9300D000D0CDB721
S1134020DEB76B017C016894D0F8A701960160EAC1
S113403074E180E090E00E94452319821A821B8279
S11340401C82AE014F5F5F4F60EA74E180E090E054
S11340500E9443238111E9CF89819A81AB81BC817C
S1134060C816D906EA06FB0601F780E02496CDBF00
S1134070DEBFDF91CF91FF90EF90DF90CF90089556
S1134080CF93DF9300D000D0CDB7DEB719821A8268
S11340901B821C82AE014F5F5F4F68E074E180E0D9
S11340A090E00E94432381112FC089819A81AB81C2
S11340B0BC819C01AD01316029833A834B835C83CD
S11340C068E074E180E090E00E94452381111CC007
S11340D0AE014F5F5F4F60E07AE180E090E00E94C4
S11340E04323811111C089819A81AB81BC819C01D8
S11340F0AD01416029833A834B835C8360E07AE1BC
S113410080E090E00E9445232496CDBFDEBFDF917E
S1134110CF910895CF92DF92EF92FF92CF93DF93E6
S113412000D000D0CDB7DEB7C090D328D090D4282B
S1134130E090D528F090D628C114D104E104F1040C
S113414009F081C043ED58E260E070E180E090E066
S11341500E944323882349F01092D3281092D42834
S11341601092D5281092D62876C0AE014F5F5F4FCB
S113417064EF73E180E090E00E9443238111ECCF6F
S11341808091D3289091D428A091D528B091D62895
S1134190803A22E0920720E1A207B10569F48981FF
S11341A09A81AB81BC810197A105B105D1F181EA66
S11341B092E0A0E1B0E018C0803B22E0920720E149
S11341C0A207B105F9F489819A81AB81BC8183305E
S11341D09105A105B10529F10497A105B10569F47B
S11341E081EB92E0A0E1B0E08093D3289093D428AF
S11341F0A093D528B093D62814C082EB92E0A0E116
S1134200B0E0F2CF803F9105A041B10551F443EDF8
S113421058E260E070E08BE390E00E944323811158
S11342209BCF8091D3289091D428A091D528B09188
S1134230D628A07FA5608093D3289093D428A093F8
S1134240D528B093D628C090D328D090D428E09015
S1134250D528F090D628C701B6012496CDBFDEBF7D
S1134260DF91CF91FF90EF90DF90CF900895CF939F
S1134270DF9300D000D0CDB7DEB7AE014F5F5F4F04
S113428060E170E080E090E00E944323811143C02C
S1134290898180FDF2CFAE014F5F5F4F61E070E036
S11342A080E090E00E944323811135C089819A8186
S11342B0AB81BC8181FD0CC0AE014F5F5F4F6BE0F1
S11342C070E080E090E00E944323882389F023C0BB
S11342D09C01AD012D7F29833A834B835C8361E08C
S11342E070E080E090E00E944523882329F313C006
S11342F049815A816B817C8140FF0DC09A01AB01D9
S11343002E7F29833A834B835C836BE070E080E0EB
S113431090E00E9445232496CDBFDEBFDF91CF916C
S11343200895EF92FF921F93CF93DF93CDB7DEB73B
S11343302897CDBFDEBF1D821E821F821886198278
S11343401A821B821C82AE014B5F5F4F6BE070E0F0
S113435080E090E00E944323182F811156C08D8184
S11343609E81AF81B88580FF0DC0AE014B5F5F4F6A
S113437061E070E080E090E00E944323182F8823DE
S113438071F043C09C01AD0121606BE070E080E0FE
S113439090E00E944523182F882339F336C08D817D
S11343A09E81AF81B88581FF03C0E12CF12C0DC043
S11343B09C01AD01226061E070E080E090E00E9429
S11343C04523182F882389F320C0AE014F5F5F4F28
S11343D06FE070E080E090E00E944323182F811189
S11343E014C0898182FD0FC062E070E080E090E03B
S11343F00E94751A8FEFE81AF80A85E0E816F104AE
S113440021F71CEF02C00E943F23812F2896CDBFC5
S1134410DEBFDF91CF911F91FF90EF900895CF926F
S1134420DF92EF92FF92CF93C82F64E170E180E0B6
S113443090E00E94412397FD07C061E070E080E0B6
S113444090E00E94751AF1CF6CEB77E082E090E087
S11344500E94412360FF11C0C23001F52DE735ED04
S11344604CE15CE36CEA77E082E090E00E94452353
S113447020E030E040E150E020C061E070E080E006
S113448090E00E94751A6CE070E0CB010E94412319
S11344906E39704D8D4A904181F7DECFC33091F46F
S11344A02DE735ED4CE15CE36CEA77E082E090E0E7
S11344B00E94452320E030E0A9016CE870E180E02F
S11344C090E011C022E533E1A9016CE870E180E0DD
S11344D090E0C43041F40E94452380E8C82ED12CDA
S11344E0E12CF12C05C00E944523C12CD12C76016E
S11344F00E948A20DC01CB019F70AA27BB27803A47
S11345009340A105B10520F0C701B601626002C065
S1134510C701B6010E94072021E63FE242E55FEEB3
S11345206CE070E0CB010E94452380E0CF91FF90C6
S1134530EF90DF90CF900895CF92DF92EF92FF92A9
S11345400F931F93CF93DF93CDB7DEB72897CDBFDB
S1134550DEBF4CE850E160E070E04D835E836F8322
S1134560788746E356E263E572E049835A836B83B6
S11345707C838250823080F48CEA97E0A2E0B0E041
S11345808D839E83AF83B88783EC91ECADE5B7ED63
S113459089839A83AB83BC83CC24CA94DC2C7601B4
S11345A060E070E0CB0109811A812B813C816017A6
S11345B0710782079307A1F062E070E080E090E069
S11345C00E94751A6D817E818F8198850E94412396
S11345D021E0C21AD108E108F10829F78BEF13C0D2
S11345E089819A81AB81BC8186339642A345B240CE
S11345F049F420E030E0A9016CE870E180E090E04B
S11346000E94452380E02896CDBFDEBFDF91CF9185
S11346101F910F91FF90EF90DF90CF900895CF936B
S1134620DF9300D000D0CDB7DEB719821A821B8287
S11346301C82AE014F5F5F4F60E074E180E090E068
S11346400E944323811111C089819A81AB81BC816D
S11346509C01AD013B7F29833A834B835C8360E0FB
S113466074E180E090E00E9445232496CDBFDEBF34
S1134670DF91CF9108950C94BF1A0C94261B0C94CF
S1134680A3270C94C7270C94DC270C94E4272F92BF
S11346903F924F925F926F927F928F929F92AF92CE
S11346A0BF92CF92DF92EF92FF920F931F93CF931B
S11346B0DF93CDB7DEB72697CDBFDEBF69837A839C
S11346C08B839C834D835E8348015901209063282A
S11346D03090642888E0281A31088A01C12CD12C32
S11346E076012101612C712C69817A818B819C81F5
S11346F06C0D7D1D8E1D9F1D481459046A047B0496
S1134700E0F04D815E814C0D5D1D94012696CDBF78
S1134710DEBFDF91CF911F910F91FF90EF90DF905B
S1134720CF90BF90AF909F908F907F906F905F904D
S11347304F903F902F900C9455289101A8010E940E
S11347405528020D131D811109C084189508A60867
S1134750B708C40CD51CE61CF71CC6CF2696CDBFE3
S1134760DEBFDF91CF911F910F91FF90EF90DF900B
S1134770CF90BF90AF909F908F907F906F905F90FD
S11347804F903F902F9008952F923F924F925F92B7
S11347906F927F928F929F92AF92BF92CF92DF924D
S11347A0EF92FF920F931F93CF93DF93CDB7DEB7B2
S11347B02697CDBFDEBF69837A838B839C834D8329
S11347C05E8348015901209063283090642888E072
S11347D0281A31088A01C12CD12C76012101612CBF
S11347E0712C69817A818B819C816C0D7D1D8E1D5C
S11347F09F1D481459046A047B04E0F04D815E81D6
S11348004C0D5D1D94012696CDBFDEBFDF91CF9187
S11348101F910F91FF90EF90DF90CF90BF90AF90DA
S11348209F908F907F906F905F904F903F902F90CC
S11348300C94E4289101A8010E94E428020D131DA0
S1134840811109C084189508A608B708C40CD51CA2
S1134850E61CF71CC6CF2696CDBFDEBFDF91CF91F5
S11348601F910F91FF90EF90DF90CF90BF90AF908A
S11348709F908F907F906F905F904F903F902F907C
S11348800895CF92DF92EF92FF920F931F93CF93ED
S1134890DF93CDB7DEB72C97CDBFDEBF19861A865E
S11348A01B861C869E012F5F3F4F690128E0F6019D
S11348B011922A95E9F7009711F480E073C07C0106
S11348C026E230E040E050E060E00E94381BAE0198
S11348D0475F5F4F68E070E08CE090E00E94432304
S11348E0811160C089859A85AB85BC850097A10537
S11348F0B10511F484EF56C0BC01CD01836008E01A
S113490010E020E030E0A6010E94472381114AC054
S11349108D819E81AF81B885AA27BB2789879A8715
S1134920AB87BC870097A105B10521F3BC01CD017C
S1134930836006E210E020E030E0A7010E944723F4
S1134940811130C0F701848190E0982F8827268157
S11349502F70AC01422B9A01858150E1859FC001E3
S113496011249927822B932B278130E0322F222781
S113497041854F70242B408560E1469FA00111249E
S11349805527242B352B009709F4B4CF2115310575
S113499009F4B0CF2335334120F48235934108F034
S11349A08CCF83EF2C96CDBFDEBFDF91CF911F91CB
S11349B00F91FF90EF90DF90CF900895CF93DF9306
S11349C0009731F0FC01C0818FEF8C0F843008F028
S11349D0C1E080E090E00E943B23D82F811118C0F1
S11349E00E94EC278C2F0E940F22D82F81110EC019
S11349F08C2F0E949C22D82F811108C0C250C23033
S1134A0038F00E944020882319F0D82F0E943D23BB
S1134A108D2FDF91CF910895CF930E940F23C82F3C
S1134A2081110DC080E00E94B529C82F811107C0F3
S1134A300E943D23C82F811102C00E94C3278C2FDE
S1134A40CF910895CF93DF93CDB7DEB72697CDBF2F
S1134A50DEBF89839A831B821C826D837E83BE01A1
S1134A606F5F7F4F83E00E94D41A2696CDBFDEBFCE
S1134A70DF91CF910895CF93DF93CDB7DEB726971B
S1134A80CDBFDEBF19821A828B839C836D837E83A4
S1134A90BE016F5F7F4F83E00E94D41A2696CDBF7C
S1134AA0DEBFDF91CF9108950F931F93CF93DF93D0
S1134AB01F92CDB7DEB7082F8F3C31F08BE3800F08
S1134AC0823010F01BE00FC061E070E0CE0101966F
S1134AD00E943B258823B1F380E01DC0898108171B
S1134AE059F0115049F061E070E0CE0101960E9446
S1134AF03B25882399F3F0CF1BE061E070E0CE0101
S1134B0001960E943B258111E7CF8981882311F00A
S1134B10115099F781E00F90DF91CF911F910F9180
S1134B2008957F928F929F92AF92BF92CF92DF921D
S1134B30EF92FF920F931F93CF93DF9300D01F92B6
S1134B40CDB7DEB74C018B01742EA12CB12C0130F2
S1134B5080E2180710F4680103C0C12C90E2D92E3A
S1134B608AE0E82EF12C61E070E0CE0103960E9409
S1134B703B25882311F080E02AC08B8182958F70B9
S1134B808F3029F081E0E81AF10868F7F4CFEF28B4
S1134B9091F3B601C4018A0D9B1D0E943B2581112E
S1134BA0EACF772039F0AC0CBD1C0C191D0979F63D
S1134BB081E00DC08091D7288111F5CF62E070E0CB
S1134BC0CE0101960E943B25882369F3D4CF239616
S1134BD0CDBFDEBFDF91CF911F910F91FF90EF907A
S1134BE0DF90CF90BF90AF909F908F907F9008956B
S1134BF0AF92CF92DF92EF92FF920F931F93CF93D6
S1134C00DF93CDB7DEB72997CDBFDEBF898390E0B0
S1134C10FC01E15CF109EF30F10508F050C0E15B03
S1134C20FF4F0C94CA2C6A835B834C8311C0BB274F
S1134C30A72F962F852FA11080688A834B831C820F
S1134C4007C01A821B82FBCF8FEF8A838B838C83EE
S1134C5065E037C06A835B834C83DD82CE8267E084
S1134C6030C06A835B834C83ED82DE82CF820CC0CA
S1134C70BB27A72F962F852FA11080688A834B838B
S1134C803C832D831E830F8368E01BC06A835B8390
S1134C904C833D832E831F83088769E012C0A1E003
S1134CA0B0E0AC0FBD1FA80FB91FEE0FEC9370E07E
S1134CB0CE0101960E94222591E0882309F190E01B
S1134CC01FC08091D728811119C0862F90E00197C9
S1134CD08C01092E000C220B330BDE011196EFE739
S1134CE00150110921093109D0F24D91F0E0EE0F84
S1134CF0FF1FE427E454FF4FE491F2CF6150D7CF74
S1134D00892F2996CDBFDEBFDF91CF911F910F91DF
S1134D10FF90EF90DF90CF90AF9008954F925F9205
S1134D206F927F929F92AF92BF92CF92DF92EF9257
S1134D30FF920F931F93CF93DF93CDB7DEB72697E0
S1134D40CDBFDEBF2B013C0129833A834B835C83B7
S1134D5081E3481651046104710418F423ECB22E63
S1134D6002C099ECB92E81E3481651046104710420
S1134D7018F49924939401C0912C8AE08E83A92C71
S1134D8084E0C82ED12CE12CF12C09811A812B81CD
S1134D903C81B301A2018B2D0E94F8258D838130C3
S1134DA031F48B2D0E9454258D83813009F161E00B
S1134DB070E080E090E00E94751AA12CC12CD12CE7
S1134DC0760100E010E0980140E050E0BA018FEC79
S1134DD00E94F8258FEC0E94542561E070E080E089
S1134DE090E00E94751A8E8181508E838111C7CF05
S1134DF08D812696CDBFDEBFDF91CF911F910F919C
S1134E00FF90EF90DF90CF90BF90AF909F907F90F6
S1134E106F905F904F9008952F923F924F925F92C0
S1134E206F927F928F929F92AF92BF92CF92DF92B6
S1134E30EF92FF920F931F93CF93DF93CDB7DEB71B
S1134E402597CDBFDEBF1B012C013A018FEF281639
S1134E5031044104510409F018F4E4ECED8302C078
S1134E60FAECFD838FEF281631044104510409F054
S1134E7018F48824839401C0812C9AE0992EA82CDC
S1134E8084E0C82ED12CE12CF12C00E010E0980134
S1134E90B201A1018D810E94F825B82EE1E08E13A4
S1134EA01CC08D810E945425B82EF1E08F1315C0CB
S1134EB0482D64E070E0CE0101960E949125B82E41
S1134EC081E0B8120AC089819A81AB81BC81F30167
S1134ED080839183A283B3831FC061E070E080E08C
S1134EE090E00E94751AA12CC12CD12C760100E00F
S1134EF010E0980140E050E0BA018FEC0E94F825E0
S1134F008FEC0E94542561E070E080E090E00E9404
S1134F10751A9A949110B3CF8B2D2596CDBFDEBF11
S1134F20DF91CF911F910F91FF90EF90DF90CF9081
S1134F30BF90AF909F908F907F906F905F904F90B5
S1134F403F902F900895AF92CF92DF92EF92FF920D
S1134F500F931F93A12CC12CD12C760100E010E0FB
S1134F60980140E050E0BA018FEC0E94F8258FECE4
S1134F700E94542580E01F910F91FF90EF90DF90E5
S1134F80CF90AF9008951092D72880E00895CF93E2
S1134F90DF9300D000D0CDB7DEB7AE014F5F5F4FD7
S1134FA00E940C2769817A818B819C812496CDBFD4
S1134FB0DEBFDF91CF9108950E940C27813011F05C
S1134FC08AEF089580E008950E948E26813011F0C2
S1134FD08AEF089580E00895CF93DF93CDB7DEB7CD
S1134FE02897CDBFDEBF19821A821B821C821092C1
S1134FF0D728AE014F5F5F4F64E278EE80E090E027
S11350000E940C27882329F08091D728882381F0D7
S113501026C081E08093D728AE014F5F5F4F64E2E2
S113502078EE80E090E00E940C278111EDCF34C02F
S113503089819A81AB81BC8183789C01AD01206513
S113504029833A834B835C8364E278EE80E090E0CA
S11350500E948E26882301F181E08093D728AE0137
S11350604B5F5F4F60E070E180E090E00E940C27AE
S11350708823A1F064E278EE80E090E00E94C727E4
S1135080DC01CB018F789C01AD01206564E278EEF0
S113509080E090E00E94E42780E001C08AEF289637
S11350A0CDBFDEBFDF91CF9108952F923F924F92F3
S11350B05F926F927F928F929F92AF92BF92CF92A4
S11350C0DF92EF92FF920F931F93CF93DF9300D061
S11350D000D0CDB7DEB71B012C013A0149018AE0AB
S11350E08B831C82E1E08E16910429F4F1E0FC83A9
S11350F082E0882E912C6401E12CF12CA12C00E09B
S113510010E09801B201A10188EC0E94F825B82EA4
S113511081E0B8121CC088EC0E945425B82EE1E04E
S11351208E1315C0FC8140E0B401FF2349F0CE0189
S113513001960E949125B82E8981F301808304C0D1
S1135140C3010E949125B82EF1E0BF1631F161E050
S113515070E080E090E00E94751AA12CC12CD12C43
S1135160760100E010E0980140E050E0BA018FECD5
S11351700E94F8258FEC0E94542561E070E080E0E5
S113518090E00E94751A8B8181508B838111AACF84
S1135190E1E0BE1611F08AEF01C080E02496CDBF95
S11351A0DEBFDF91CF911F910F91FF90EF90DF90C1
S11351B0CF90BF90AF909F908F907F906F905F90B3
S11351C04F903F902F9008952F923F924F925F926D
S11351D06F927F928F929F92AF92BF92CF92DF9203
S11351E0EF92FF920F931F93CF93DF9300D000D0E1
S11351F0CDB7DEB72B013C011A0149012AE0B22EDA
S113520081E08816910419F492E0892E912C6401AE
S1135210E12CF12CA12C00E010E09801B301A201D3
S113522087EC0E94F825813009F069C087EC0E9460
S11352305425813009F063C019821A828401E12C5B
S1135240F12C6801013080E2180718F0C12C80E2CB
S1135250D82EE114F10429F4013080E2180738F45F
S113526004C0013080E2180720F483E003C081E029
S113527001C082E0806F8C8361E070E0CE0104960F
S11352800E94222581113BC0B601C1018E0D9F1DD4
S11352900E942225811133C08091D728882331F0C0
S11352A0EC0CFD1C0C191D0961F609C062E070E0EC
S11352B0CE0101960E942225882391F320C080917B
S11352C0D728882311F003E001C002E010E0B80100
S11352D0CE0101960E943B25811111C0FE01E00F11
S11352E0F11F808181110BC0EFEFFFEFEC0FFD1F69
S11352F0E00FF11F8081833C11F480E020C061E065
S113530070E080E090E00E94751AA12CC12CD12C91
S1135310760100E010E0980140E050E0BA018FEC23
S11353200E94F8258FEC0E94542561E070E080E033
S113533090E00E94751ABA94B11062CF8AEF249655
S1135340CDBFDEBFDF91CF911F910F91FF90EF9002
S1135350DF90CF90BF90AF909F908F907F906F9091
S11353605F904F903F902F9008950F931F93CF938A
S1135370DF9300D000D0CDB7DEB7082F0E948A207B
S1135380DC01CB019F70AA27BB27803A9340A1057B
S1135390B10508F4AAC0AE014F5F5F4F60E174E14C
S11353A080E090E00E944323182F81119FC08981DF
S11353B09A81AB81BC819F78A878B87F9C01AD01AC
S11353C030614161516029833A834B835C8360E19E
S11353D074E180E090E00E94452320E030E0A901E0
S11353E068E072E081E090E0002309F449C00E9483
S11353F045232BEA30E040E050E06CE072E081E0CD
S113540090E00E94452321E030E040E050E064E178
S113541072E081E090E00E94452320E030E0A901A1
S11354206CE172E081E090E00E94452321E830E0E5
S113543040E050E064E072E081E090E00E944523A7
S113544068E172E081E090E00E94412361307105DF
S113545081059105A9F789819A81AB81BC819F78E7
S1135460A878B87F9C01AD01416029833A834B83BE
S11354705C8360E174E180E090E00E94452336C0E3
S11354800E94452329EB30E040E050E06CE072E0FC
S113549081E090E00E94452321E030E040E050E0CC
S11354A064E172E081E090E00E94452320E030E076
S11354B0A9016CE172E081E090E00E94452321E8BB
S11354C030E040E050E064E072E081E090E00E946F
S11354D0452368E172E081E090E00E94412361305D
S11354E0710581059105A9F7B6CF10E0812F2496A7
S11354F0CDBFDEBFDF91CF911F910F910895CF9360
S1135500DF939B01220F331F2F3F310509F018F55C
S1135510C8EDD8E2FC01680F791FE617F707A1F080
S1135520CF01A191A295AF70B0E0AD5FBA454C91A7
S11355304883DC018C91A82FAF70B0E0AD5FBA4511
S11355408C9189832296E9CFF901E852F74D1082B4
S113555088ED98E202C083EE94EADF91CF9108953A
S11355602F923F924F925F926F927F928F929F926F
S1135570AF92BF92CF92DF92EF92FF920F931F935D
S1135580CF93DF93EC012A013B0119014701580134
S1135590C9010E94461B01962091E59C3091E69C2E
S11355A04091319F5091329F240F351F40EA5DE0B6
S11355B0421B530BFE0120E030E061916F3F19F470
S11355C02417350781F42417350781F418861986C2
S11355D01A861B8640ED51E060E070E04C875D87E1
S11355E06E877F8703C02F5F3F4FE7CFE884F9843E
S11355F00A851B8528E0E216F1040105110510F067
S113560084EF4DC04C855D856E857F85480D591DA1
S11356106A1D7B1D441655066606770688F3B80195
S1135620A7014F5F5F4F6F4F7F4F488759876A8746
S11356307B878133910520F79C0140E050E088E3AB
S11356408E9D30018F9D700C1124C3014096B101D1
S11356508C0F9D1F0E94281B6C0E7D1EF301E05CC5
S1135660FF4F80829182A282B3828C859D85AE8514
S1135670BF85349680839183A283B383B501A4014B
S1135680480F591F6A1F7B1F4C875D876E877F8772
S11356908C0F9D1FA401B6010E94072E80E0DF91AC
S11356A0CF911F910F91FF90EF90DF90CF90BF901B
S11356B0AF909F908F907F906F905F904F903F90AE
S11356C02F9008952091E59C3091E69C4091319F64
S11356D05091329F240F351F40EA5DE0421B530B6B
S11356E0FC0120E030E061916F3F19F42417350785
S11356F039F42417350739F0FC018485958508951C
S11357002F5F3F4FF0CF80ED91E0089540E15EE0E0
S11357106FEF70E089E19AE20E94192EE9ECF7E359
S1135720E093E029F093E12988EF9FEF2091E59C35
S11357303091E69CAC01421B530B9A012753384C21
S11357402093E4293093E5294091319F5091329F71
S1135750841B950B820F931F8093E2299093E32976
S113576080E6DF011D928A95E9F7E093DE29F09344
S1135770DF2989EF97E38093DC299093DD2908954D
S1135780AF92BF92CF92DF92EF92FF920F931F934B
S1135790CF93DF93CDB7DEB7C256D109CDBFDEBFFD
S11357A08C014091172A5091182A6091E429709134
S11357B0E5299E012F5F3F4F8FE99CE90E946A040F
S11357C08111D8C001151105E1F490E2A92EB12C84
S11357D0A396AEAEBFAEA3974091293850912A3814
S11357E06091E2297091E3298E010F591F4F9E01A8
S11357F02F5B3F4F8BEE9EE90E94A8048111BAC033
S113580010C04091293850912A386091E229709152
S1135810E32998018BEE9EE90E9489048111AAC0B4
S1135820D4CF63EF74EA8091DE299091DF290E943E
S11358303F2EA3966EAD7FADA397CE018F5B9F4F96
S11358400E947F2ABC018091DE299091DF290E9469
S1135850202EC090E229D090E329E0902938F090DE
S11358602A3800E010E02091DE293091DF2940E160
S11358705EE060E070E089E19AE20E94B02A811162
S11358807AC01092E2291092E329A396AEAEBFAE7D
S1135890A3974091172A5091182A6091E429709196
S11358A0E5298E010F591F4F9E012F5B3F4F8FE952
S11358B09CE90E94A80481115DC063EF74EA8091A1
S11358C0DC299091DD290E943F2EA3966EAD7FAD19
S11358D0A397CE018F5B9F4F0E947F2ABC018091CA
S11358E0DC299091DD290E94202EC090E429D090DB
S11358F0E529E090172AF090182A00E010E02091A2
S1135900DC293091DD2940E15EE060E070E089E16E
S11359109AE20E94B02A81112EC0C090E029D09052
S1135920E12910E6E12EF12C00E010E029EF34EA41
S113593040E15EE060E070E089E19AE20E94B02A12
S1135940811119C01092E0291092E1291092DC29EA
S11359501092DD291092DE291092DF2989E19AE262
S11359600E94622BAC0160E070E089E19AE20E943F
S1135970281E01C084EFCE59DF4FCDBFDEBFDF91BB
S1135980CF911F910F91FF90EF90DF90CF90BF9038
S1135990AF900895EE0FFF1F0590F491E02D099448
S11359A00F931F93CF93DF938230910510F482E01D
S11359B090E0E0912D38F0912E3820E030E0A0E026
S11359C0B0E0309719F14081518102811381481769
S11359D05907C8F08417950769F4109731F01296A7
S11359E00C93129713961C9327C000932D38109391
S11359F02E3822C02115310519F04217530718F427
S1135A009A01BD01EF01DF01F801DBCF211531055A
S1135A10F9F0281B390B2430310580F48A819B81ED
S1135A206115710521F0FB018283938304C0809387
S1135A302D3890932E38FE01329644C0FE01E20FB9
S1135A40F31F8193919322503109288339833AC0FB
S1135A5020912B3830912C38232B41F420910228AB
S1135A603091032820932B3830932C382091002830
S1135A70309101282115310541F42DB73EB74091ED
S1135A80042850910528241B350BE0912B38F09104
S1135A902C38E217F307A0F42E1B3F0B2817390705
S1135AA078F0AC014E5F5F4F2417350748F04E0F76
S1135AB05F1F40932B3850932C388193919302C0ED
S1135AC0E0E0F0E0CF01DF91CF911F910F910895B5
S1135AD0CF93DF93009709F481C0FC0132971282BF
S1135AE01382A0912D38B0912E38109781F4208123
S1135AF03181820F931F20912B3830912C38281735
S1135B00390751F5E0932B38F0932C3867C0ED0139
S1135B1020E030E0CE17DF0740F44A815B819E012C
S1135B2041155105F1F0EA01F5CFC283D3834081D9
S1135B305181840F951FC817D90759F48881998119
S1135B40840F951F0296808391838A819B8182832F
S1135B5093832115310529F4E0932D38F0932E38E1
S1135B603DC0E901EA83FB8349915991C40FD51FD4
S1135B70EC17FD0761F480819181840F951F0296D3
S1135B80E90188839983828193818A839B83E0E0FE
S1135B90F0E012968D919C911397009719F0FD01F6
S1135BA0DC01F7CF8D919C9111979D012E5F3F4FA2
S1135BB0820F931F20912B3830912C3828173907E6
S1135BC069F4309729F410922D3810922E3802C0BF
S1135BD012821382A0932B38B0932C38DF91CF918B
S1135BE00895FB01DC0104C08D910190801921F41A
S1135BF041505040C8F7881B990B0895FB01DC0104
S1135C0002C001900D9241505040D8F70895681792
S1135C10790768F4FB01DC01E40FF51FA40FB51F3D
S1135C2002C002900E9241505040D8F708950C944F
S1135C30FE2DDC0101C06D9341505040E0F7089502
S1135C40FB01DC010D900020E9F7119701900D9202
S1135C500020E1F70895FC018191861721F0882343
S1135C60D9F7992708953197CF010895FB01DC01F5
S1135C708D91019080190110D9F3990B0895FB01BE
S1135C80DC0101900D920020E1F70895F894FFCF14
S1135C900400034004113343446F6E652E0000007A
S1135CA001000000020E0004001000010104007253
S1135CB0010A020B0000004800020C00000048002A
S1135CC0CE00400082014A0061000D0070000D000A
S1135CD0AF0004000F001000620114004101140021
